:0B200000000000000000000000751947
:0600700005536E644D789B
:0600D00005536E644D783B
:0AC000004D4F505305536E644D7808
:02C00B001CC156
:10C0100001302E312A2A2A20545643204D756C7443
:10C02000696368697020536F756E64636172642020
:10C0300076312E302E31202062792053616E79695D
:10C04000202A2A2A0D0A0D0A0D8A55736564207369
:10C050006C6F743A20A30D0A4261736520706F7291
:10C060007420616464726573733A20A40D0A0D0A2A
:10C07000507265737320535041434520746F207391
:10C080006F6D6520746573742074756E65F30D0AA9
:10C090000D0A535041434520707265737365642CDB
:10C0A0002064656D6F2073657175656E63652073BF
:10C0B00074617274730D8A0D0A50726F746F20620E
:10C0C0006F6172642064657465637465E40D0A765B
:10C0D000312E332B20626F61726420646574656356
:03C0E0007465E4A0
:10C100003E003208203A0120C6064F3E02ED79C9B2
:10C11000003A0120C6064F3E02ED79C9F3ED7300E7
:10C120000131FF7FCD5CC2AFD3003201203202204B
:10C13000CD64C13A0120FE0028143A210B3C281F8F
:10C14000CDBCD7CD00C1CD10C2CD4DC2181101005C
:10C15000003E08D300AF0000D3000D20F410F2ED34
:10C160007B0001C9AF3200203E10F5114000D5011F
:10C1700006002104C01AEDA1202213EA75C1D1F1F5
:10C18000F5D5320120473A0220FE00200A7832031A
:10C19000203A0020320220CDBDC1180021002034F9
:10C1A000D1EB11300019EBF1C610FE50C8F5D518CF
:10C1B000BE3A00203C07070707320120C9CDC7C19E
:10C1C000CDE5C1CDF5C1C93A01204F3E9FED79CDF6
:10C1D000E4C13EBFED79CDE4C13EDFED79CDE4C1F0
:10C1E0003EFFED79C93A0120C6034F3E1CED790DA3
:10C1F0003E02ED79C93A0120C6044F0600AFED4179
:10C200000C0000ED790D04CD0FC2CD0FC220EFC997
:10C21000010309CDEBD72114C0CD95D8214AC0CD5B
:10C2200095D83A0220CDA3D82156C0CD95D83A034F
:10C2300020CDB3D83A0820FE00200521B7C018034E
:10C2400021CDC0CD95D8216CC0CD95D8C92179C25A
:10C25000110920012C15EDB0CD0920C92172C21E93
:10C26000077ED3000140000520FD0D20FA231D208C
:10C27000F0C90020A0AAA02000CD5120F607D303CA
:10C2800006030E0121FFFFDB58CB6F28162BAFBC36
:10C2900020F50DB920EE3E2ECD03D810E5CD51206E
:10C2A000D303C9218EC0CD95D8CD5920CDE720CD5F
:10C2B000CD21CDA82306FF0010FDDB58CB6F28F55C
:10C2C000C93A02200F0FE6C0C9219A34CD95D82172
:10C2D0009D20CD7334C978FE00CA7F20FE01CA8B31
:10C2E00034FE02CA8F20FE03CA7B20AFD305C923C8
:10C2F0007ED304237EE60FF610D30523C3733423C5
:10C300007E23CB27CB27F680D306C37334020D00E0
:10C310002A0A01F0020D0130020C0130020A01303C
:10C32000020D00CD0A01F0020D0130020C013002B5
:10C330000A0130020D005E0B01F0020D0130020C0B
:10C340000130020A01300208013002040130020209
:10C350000130020001A00321B134CD95D83A032069
:10C360004F214C21CD7334C978FE10CA0D21FE1126
:10C37000CA8B34FE12CA2321FE13CA3221237E0F38
:10C380000F0FF68023B6ED79CD4B21237EED792377
:10C39000C37334237E0F0F0FF69023B6ED7923C3BA
:10C3A00073343E9FED79CD4B213EBFED79CD4B21CE
:10C3B0003EDFED79CD4B213EFFED79C91000073509
:10C3C00012000011F012000111301200021130129F
:10C3D0000003113010010A2F12000412010011F0A5
:10C3E0001200051201011130120006120102113073
:10C3F00012000712010311301002072A1201041261
:10C40000020011F012010512020111301201061290
:10C410000202113012010712020311301201081238
:10C4200002041130120205113012020611301202FC
:10C430000911A012000F12010F12020F133A082067
:10C44000FE00CAE22121D534CD95D8211CC1CD11E1
:10C45000C1C921C334CD95D83A0320C6024FCDF8C7
:10C460002121CA22CD7334C90C3E1CED790D3E0248
:10C47000ED790C3E15ED790DAFED790C3E14ED79AB
:10C480000DAFED790C3E18ED790DAFED790C3E193D
:10C49000ED790DAFED790603160F0C7A80ED793E3C
:10C4A000220DED790520F30C3E1CED790D3E01EDDA
:10C4B00079C978FE20CA5722FE21CA8B34FE22CACF
:10C4C0006722FE23CAB322237EC6080CED790D2312
:10C4D0007EED7923C37334237E47237EFE00F5CCA3
:10C4E0008022C49A220CED41F10DED7923C37334FF
:10C4F000E521BE22581600197E21BD22A6770C3EEA
:10C5000014ED790D7EED79E1AFC9E521C42258160D
:10C5100000197E21BD22B6770C3E14ED790D7EED1B
:10C5200079E1C90C3E1CED79AF0DED79C900FEFD36
:10C53000FBF7EFDF0102040810202000212200F0A9
:10C5400021802001212201A021702200E02201800F
:10C5500021302200D022016021302200C02201506F
:10C56000213020025522020F218020035522030A88
:10C5700021702200B022014022020E220308213045
:10C580002200A022013022020D22030621302200C7
:10C590005022012022020C22030521302004842293
:10C5A00004FF21802005842205AA217022020B228B
:10C5B00003042204EE220588213022020A2203030A
:10C5C0002204DD220566213022020922030322040F
:10C5D000CC22055521302202082203032204BB226B
:10C5E000054421302202062203022204AA22053336
:10C5F000213022020522030222045022052221A01A
:10C600002200002201002202002203002204002254
:10C610000500237519C37334210935CD95D811351B
:10C62000252A3525193A0320C60432D9243C32DDA7
:10C6300024ED73A3237E23FE5028FAFE7028F6FE15
:10C6400071282AFE72282947E670FE7078282FFE8E
:10C65000612844FE5ACAD424FEBDCAC523FE6228FE
:10C6600056FE63CA8424FE66CACC2418C8C3C523F8
:10C67000DD2A7519DD2A7519131313C3C523E60FB7
:10C68000D60247DD2313DD2A7519DD2A7519DD234E
:10C69000CB2710F2C3C5235E2356231B1B1B1BDDB8
:10C6A0002A7519DD233EFFDD2A7519DD09DD23001A
:10C6B0001BBA20F3C3C52306F4DD2A7519DD2A75DC
:10C6C00019DD2A7519DD2A7519DD2A7519DD2A7516
:10C6D00019DD2A7519DD2A7519DD2A7519DD2A7506
:10C6E0001910D6DD2A7519DD2A7519DD2A7519DDAF
:10C6F00023C3C52306C7DD2A7519DD2A7519DD2A6E
:10C700007519DD2A7519DD2A7519DD2A7519DD2AD5
:10C710007519DD2A7519DD2A7519DD2A7519DD2AC5
:10C720007519DD2A7519DD2A7519DD2A7519DD2AB5
:10C73000751910C2DD2A7519AFC3C523ED7BA3237C
:10C74000CDE124C9F9D1237BD3347A23D335C3C5B2
:10C75000233A0320C6044F060078ED79000CAFEDB4
:10C7600079CD0025CD0025CD00250D0420EB0D0D44
:10C77000C956676D206E0F000051010000000000D7
:10C780000000000000740E0000B7250C000000003F
:10C790000000000000000000000000000000000099
:10C7A00000000000004C000000000000000000003D
:10C7B0000000000000000000000000000000000079
:10C7C00000E06735000000000000000000000000ED
:10C7D0000000000000000000000000000000000059
:10C7E0000000000000000000000000000000000049
:10C7F000005A01005A20005A21005A22005A2300F0
:10C800005A24005A25005A26005A27005A28005A4E
:10C8100029005A2A005A2B005A2C005A2D005A2E51
:10C82000005A2F005A30005A31005A32005A330051
:10C830005A34005A35005A403F5A413F5A423F5AF3
:10C84000433F5A443F5A453F5A463F5A473F5A484A
:10C850003F5A493F5A4A3F5A4B3F5A4C3F5A4D3F25
:10C860005A4E3F5A4F3F5A503F5A513F5A523F5AE1
:10C87000533F5A543F5A553F5AA0005AA1005AA25A
:10C88000005AA3005AA4005AA5005AA6005AA700AD
:10C890005AA8005AB0005AB1005AB2005AB3005A0E
:10C8A000B4005AB5005AB6005AB7005AB8005ABD7B
:10C8B000205AC6065AC7005AC807618D035AC508D0
:10C8C000735A2A20735A6AF2715A8A53725A2D2067
:10C8D000735A6DF3715A8D01735AC408735A292023
:10C8E000735A69F2715A8953725A2C20725A6CF336
:10C8F000715A8C01745AC308735A2820735A68F20B
:10C90000715A8853725A2B20725A6BF3715A8B01E9
:10C91000755AC208725A2220735A62F2715A8253AF
:10C92000725A2520735A65F3715A8501745AC104ED
:10C93000735A2120735A61F4715A8134725A242235
:10C94000735A64F4715A84457C5A70CA715A909F24
:10C95000765A73E3715A931F7C5A74F6715A94385D
:10C960007C5A72F6715A92077D5A71F6715A91A9E2
:10C97000611A015A4206735A4504735A4806735A9B
:10C980004B047F725AA294705AA3947B5AB23370AC
:10C990005AB32F61660A5AB213705AB30F61A50ACF
:10C9A0005AA230715AA3307A5AB233715AB32F61F6
:10C9B000910A5AB213705AB30F61B20A5A410674FF
:10C9C0005A4400765A4906705A4A06725A4C047004
:10C9D0005A4D04735A5000715A5106725A530074DA
:10C9E0005AA163715AA294705AA394715AA46370A5
:10C9F0005AA594705AA663715AA763735AB12A71E3
:10CA00005AB233705AB32F705AB432715AB52F706C
:10CA10005AB60A715AB70A725ABD316140035ABDFB
:10CA20003061531C5AB10A61B50A5AB12E7A5ABD07
:10CA30003163705ABD3061541C5AB10E7A5ABD2010
:10CA400061A40A5A5203725A54017D5AA8D7725AE5
:10CA5000B12A795AB80A705ABD2D6164035ABD2CA7
:10CA600061521C5AB10A61B80A5AB12E7B5ABD2DC7
:10CA70006171035ABD2C61551C5AB10E7B5ABD2001
:10CA800061BE0A5AB12A7A5ABD31615C035ABD307F
:10CA900061531C5AB10A7A5ABD2061AF0A5AB12EAD
:10CAA0007A5ABD31616F035ABD306115075AB2130E
:10CAB000715AB30F613C155AB10E7B5ABD2061C249
:10CAC0000A5AA2D7705AA3D7795AB12A705AB232E9
:10CAD000715AB32E775ABD2D614F035ABD2C611682
:10CAE000075AB212705AB30E619E0A5AA230705A97
:10CAF000A3307B5AB233705AB32F61950A5AB10AE8
:10CB0000715AB213705AB30F61B00A5AA294715A93
:10CB1000A394795AB12E705AB233715AB32F775AFF
:10CB2000BD2D6164035ABD2C6116075AB213715AA8
:10CB3000B30F61A40A5AA2CA715AA3CA7A5AB2336D
:10CB4000715AB32F705AB412705AB50F618D0A5AC8
:10CB5000B10E715AB213705AB30F785ABD2061D119
:10CB60000A5AA1D7715AA220705AA320705AA4D78A
:10CB7000715AA520765AB12A705AB236715AB33218
:10CB8000705AB432715AB532745ABD316138035A91
:10CB9000BD306116075AB216705AB312619E0A5A16
:10CBA000A263705AA3637A5AB236715AB33261954E
:10CBB0000A5AB10A705AB216715AB31261B60A5AB9
:10CBC000A220715AA320795AB12E705AB236715AE6
:10CBD000B332775ABD31615E035ABD3061541C5A7D
:10CBE000B10E7B5ABD2061B90A5AB12A7A5ABD2DBD
:10CBF0006163035ABD2C61511C5AB10A61B80A5ACB
:10CC0000B12E7B5ABD2D6171035ABD2C61541C5A43
:10CC1000B10E7A5ABD2061C20A5AB12A7B5ABD317F
:10CC20006159035ABD3061531C5AB10A7A5ABD206A
:10CC300061B10A5AB12E7A5ABD31616D035ABD30C5
:10CC400061B9115AB216715AB31261990A5AB10EEA
:10CC50007A5ABD2061C20A5AA263705AA363795AF4
:10CC6000B12A705AB236715AB332775ABD2D614F1C
:10CC7000035ABD2C6116075AB216705AB312619E40
:10CC80000A5AA220715AA3207A5AB236705AB33285
:10CC900061950A5AB10A715AB216705AB31261B04C
:10CCA0000A5AA2CA715AA3CA795AB12E705AB2331B
:10CCB000715AB32F775ABD2D6165035ABD2C61158A
:10CCC000075AB213715AB30F61A50A5AA294705A47
:10CCD000A3947B5AB233705AB32F705AB412715A5C
:10CCE000B512618D0A5AB10E705AB213715AB30F50
:10CCF000775ABD2061D10A5AA1CA715AA2CA705A84
:10CD0000A3CA705AA4CA715AA5D7765AB127705AC5
:10CD1000B233715AB32F705AB42F715AB52E745A58
:10CD2000BD316138035ABD3061541C5AB10761B638
:10CD30000A5AB12B7A5ABD316171035ABD3061561E
:10CD40001C5AB10B7B5ABD2061B70A5AB1277B5AD6
:10CD5000BD2D6162035ABD2C61581C5AB107705A2F
:10CD6000B213715AB30F61B00A5AA294715AA394C4
:10CD7000795AB12B705AB233705AB32F785ABD2DED
:10CD80006164035ABD2C615A1C5AB10B715AB2131B
:10CD9000705AB30F785ABD2061BD0A5AA230705A3A
:10CDA000A330795AB127715AB233705AB32F785AD7
:10CDB000BD31614D035ABD3061541C5AB1077B5AD5
:10CDC000BD2061AE0A5AB12B7A5ABD31616D035A4A
:10CDD000BD30615A1C5AB10B715AB213705AB30F5D
:10CDE000785ABD2061B50A5AA2D7705AA3D7795A8A
:10CDF000B127705AB232715AB32E775ABD2D615590
:10CE0000035ABD2C61541C5AB10761B60A5AB12BA2
:10CE10007B5ABD2D6171035ABD2C61BE115AB40FEE
:10CE2000715AB50E619A0A5AB10B705AB212715A00
:10CE3000B30E775ABD2061D80A5AA120715AA22098
:10CE4000705AA320705AA420715AA530765AB12A7C
:10CE5000705AB236715AB332705AB432715AB52F11
:10CE6000745ABD316131035ABD3061521C5AB10A46
:10CE700061B80A5AB12E7A5ABD31635ABD30615336
:10CE80001C5AB10E7B5ABD2061B90A5AB12A7B5A8D
:10CE9000BD2D6162035ABD2C61521C5AB10A61B8A2
:10CEA0000A5AB12E7A5ABD2D6171035ABD2C6154B4
:10CEB0001C5AB10E7B5ABD2061C10A5AB12A7B5A55
:10CEC000BD31615A035ABD3061521C5AB10A7B5AB6
:10CED000BD2061B00A5AB12E7A5ABD31616D035A34
:10CEE000BD3061541C5AB10E7B5ABD2061B90A5A3B
:10CEF000B12A7A5ABD2D6163035ABD2C61511C5A67
:10CF0000B10A61B80A5AB12E7B5ABD2D6171035A1C
:10CF1000BD2C61C1115AB216705AB312705AB412B4
:10CF2000715AB50F618F0A5AB10E7A5ABD2061DE6F
:10CF30000A5AA163715AA263705AA363705AA46318
:10CF4000715AA594765AB12A705AB236715AB332D0
:10CF5000705AB432715AB52F745ABD316131035AC7
:10CF6000BD3061541C5AB10A61B60A5AB12E7B5ABF
:10CF7000BD316171035ABD3061551C5AB10E7B5AE7
:10CF8000BD2061B80A5AB12A7A5ABD2D6162035A8E
:10CF9000BD2C61581C5AB10A715AB216705AB3129C
:10CFA00061B00A5AA2AE715AA3AE795AB12E705A24
:10CFB000B236715AB332775ABD2D6165035ABD2C12
:10CFC000615A1C5AB10E705AB216715AB312775A7E
:10CFD000BD2061BD0A5AA2D7705AA3D7795AB12A87
:10CFE000715AB236705AB332785ABD31614D035A14
:10CFF000BD3061591C5AB10A705AB216715AB31237
:10D00000775ABD2061AC0A5AA2AE715AA3AE795AC2
:10D01000B12E705AB236705AB332785ABD31615F50
:10D02000035ABD30615A1C5AB10E715AB216705A69
:10D03000B312785ABD2061B50A5AA263705AA3632D
:10D04000795AB12A715AB236705AB332785ABD2D14
:10D050006155035ABD2C61581C5AB10A705AB21658
:10D06000715AB31261B00A5AA294715AA394795AB0
:10D07000B12E705AB237705AB333785ABD2D6164ED
:10D08000035ABD2C61BF115AB412705AB50F619A80
:10D090000A5AB10E715AB217705AB313785ABD209A
:10D0A00061D10A5AA1CA715AA2CA705AA3CA705A47
:10D0B000A4CA715AA5D7765AB127705AB237715A95
:10D0C000B333705AB42F715AB52E745ABD316138CA
:10D0D000035ABD3061531C5AB10761B60A5AB12BCD
:10D0E0007B5ABD316171035ABD3061561C5AB10B78
:10D0F0007A5ABD2061B80A5AB1277A5ABD2D6162A9
:10D10000035ABD2C61581C5AB107715AB217705A94
:10D11000B31361B10A5AA294705AA394795AB12BED
:10D12000715AB237705AB333785ABD2D6164035ABD
:10D13000BD2C615A1C5AB10B705AB217715AB313F5
:10D14000775ABD2061BD0A5AA230715AA330795A6C
:10D15000B127705AB237715AB333775ABD31614D26
:10D16000035ABD3061591C5AB107705AB217715A2F
:10D17000B313775ABD2061AC0A5AA2D7715AA3D70C
:10D18000795AB12B705AB236705AB332785ABD31CF
:10D190006160035ABD30615A1C5AB10B705AB21605
:10D1A000715AB312775ABD2061B50A5AA2AE705AAD
:10D1B000A3AE795AB127715AB236705AB332785A3F
:10D1C000BD2D6155035ABD2C61581C5AB107715AC7
:10D1D000B216705AB31261B00A5AA263715AA363AD
:10D1E000795AB12B705AB236715AB332775ABD2D73
:10D1F0006164035ABD2C61BF115AB40F705AB50E49
:10D20000619A0A5AB10B715AB216705AB312785A0F
:10D21000BD2061D10A5AA120715AA2AE705AA3AEA4
:10D22000705AA420715AA530765AB12A705AB23673
:10D23000715AB332705AB432715AB52F745ABD3123
:10D240006138035ABD3061531C5AB10A61B70A5A9A
:10D25000B12E7A5ABD316171035ABD3061561C5AE4
:10D26000B10E7A5ABD2061B80A5AB12A7A5ABD2D38
:10D270006163035ABD2C61531C5AB10A61B60A5A44
:10D28000B12E7B5ABD2D6171035ABD2C615A1C5AB7
:10D29000B10E715AB216705AB312785ABD2061BDE0
:10D2A0000A5AA220705AA320795AB12A715AB2366A
:10D2B000705AB332785ABD31614C035ABD30615552
:10D2C0001C5AB10A7A5ABD2061AF0A5AB12E7A5A55
:10D2D000BD31616D035ABD30615A1C5AB10E705A8E
:10D2E000B216715AB312775ABD2061B50A5AA230EC
:10D2F000715AA330795AB12A705AB237715AB3337E
:10D30000775ABD2D6155035ABD2C61541C5AB10A80
:10D3100061B60A5AB12E7A5ABD2D635ABD2C61BE30
:10D32000115AB412715AB50F619A0A5AB10E705A55
:10D33000B217715AB313775ABD2061DB0A5AA1D7CD
:10D34000715AA2D7705AA3D7705AA4D7715AA52080
:10D35000765AB12A705AB236715AB332705AB43210
:10D36000715AB532745ABD31612E035ABD306153C2
:10D370001C5AB10A61B70A5AB12E7A5ABD3161718D
:10D38000035ABD3061571C5AB10E725AB312785A03
:10D39000BD2061B30A5AA320795AB12A725AB33216
:10D3A000775ABD2D615C035ABD2C61521C5AB10ADB
:10D3B00061B80A5AB12E7A5ABD2D6171035ABD2C3B
:10D3C00061571C5AB10E725AB312785ABD2061BB14
:10D3D0000A5AA3CA795AB12A725AB32F775ABD3161
:10D3E0006154035ABD3061531C5AB10A7B5ABD20A7
:10D3F00061AF0A5AB12E7A5ABD31616D035ABD3000
:10D4000061571C5AB10E725AB30F785ABD2061B2DF
:10D410000A5AA330795AB12A725AB32F785ABD2DBD
:10D42000615B035ABD2C61531C5AB10A61B70A5A99
:10D43000B12E7B5ABD2D6171035ABD2C61571C5A08
:10D44000B10E725AB30F775ABD2061C50A5AA39420
:10D45000795AB12A725AB32F775ABD3D61D5145A01
:10D460004107735A4401755A4807735A4B0561AA1C
:10D47000035ABD3C6171035A513F611B0E5A41086A
:10D48000735A4402755A4808735A4B066132155A4A
:10D490004109735A4403755A4809735A4B0761C5C9
:10D4A0000A5ABD2061880A5A410A735A4404755ABF
:10D4B000480A735A4B08765A503F725A523F705A74
:10D4C000533F715A543F610A155A410B735A440530
:10D4D000755A480B735A4B096138155A410C745AE6
:10D4E0004406745A480C735A4B0A6132155A410D5E
:10D4F000745A4407745A480D735A4B0B6139155AC4
:10D50000410E735A4408755A480E735A4B0C6132D7
:10D51000155A410F735A4409755A480F735A4B0DE7
:10D520006138155A4110735A440A755A4810735A93
:10D530004B0E6132155A4111745A440B745A4811FA
:10D54000735A4B0F6138155A4112745A440C745A6D
:10D550004812735A4B106133155A4113735A440DD4
:10D56000755A4813735A4B116141155A4114745A34
:10D57000440E745A4814735A4B127F7F5AB2167174
:10D580005AB412715AB512612E155AB10A725AB3B1
:10D590000F6119155A2100715A2200715A24007125
:10D5A0005A2500735A2800705A2900715A2A0070AF
:10D5B0005A2B00715A2C00705A2D007D5A413F7130
:10D5C0005A423F715A443F715A453F735A483F701F
:10D5D0005A493F715A4A3F705A4B3F715A4C3F70FB
:10D5E0005A4D3F7D5AA100715AA200705AA3007093
:10D5F0005AA400715AA500746647643320000100E4
:10D6000000DE00000046006C006F007700650072CD
:10D610000020006F0066002000560069006300745F
:10D62000006F00720079002000280045006E006441
:10D630000069006E00670029000000A830F330C7C1
:10D6400030A330F330B0302000DD5229526E30B1BB
:10D65000825F6700004F007500740020005A006F61
:10D66000006E0065000000A230A630C830BE30FC5D
:10D6700030F330000054006F00610070006C0061F6
:10D68000006E0020003100000054006F0061007047
:10D69000006C0061006E0020003100000054006149
:10D6A000007400730075007900610020005500656A
:10D6B000006D0075007200610000000A4E5167FAAB
:10D6C0005E5F4E000031003900390030002D00301F
:10D6D00000380000003200630068002D00480000A0
:10D6E0000000007E47E6F0FE00CA6620FE10CAF881
:10D6F00020FE20CA4222FE30CAA52323462350061C
:10D70000FF0010FD4210F7C3733454564320696E76
:10D710007465726E616C20736F756E642E2E2E0DA3
:10D720008A534E373634383920736F756E642E2E17
:10D730002E0D8A5341413130393920736F756E6433
:10D740002E2E2E0D8A53414131303939206D75739B
:10D75000696320285365616E204265726E61726450
:10D76000202D20506F7020274E27205477696E207F
:10D77000426565292E2E2E0D8A594D3338313220BF
:10D78000206D7573696320284F7574205A6F6E651C
:10D79000202D20456E64696E67205468656D65298B
:10D7A0002E2E2E0D8A0604AF0E0221FFFF2BBC2069
:10D7B000FC0D20F63E2ECD03D810EDC93E00D30659
:10D7C0003E00D3603E50D3613E10D3623EFFD36231
:10D7D0003ED0D3023E003200802100801101800142
:10D7E000FF3FEDB0010000CDEBD7C9E5F57832067B
:10D7F000207932072026806879CB2784672204208D
:10D80000F1E1C9E5D5C5F5E67FFE0D2852FE0A28EF
:10D8100059FE1F3869FE40380AFE5E3808FE7B3824
:10D8200008185B1808D6401804D62018006FAF6798
:10D83000CB25CB14CB25CB14CB25CB140100DD0994
:10D840000608ED5B04207EEB77EB237BC6405F7A16
:10D85000CE005710F12104203421062034181F3A3D
:10D8600007204FAF47CDEBD718143A0620473A07A9
:10D87000203CFE1E2004CD83D83D4FCDEBD7F1C117
:10D88000D1E1C9E5D5C511008021008201003EED3E
:10D89000B0C1D1E1C9F57ECD03D8CB7F20032318D9
:10D8A000F5F1C9FE0A3006C630CD03D8C9C637CD5A
:10D8B00003D8C9F5CB3FCB3FCB3FCB3FCDA3D8F16E
:06D8C000E60FCDA3D8C95C
:10DD00003C666E6E60623C00183C667E666666002D
:10DD10007C66667C66667C003C66606060663C0093
:10DD2000786C6666666C78007E60607860607E0005
:10DD30007E606078606060003C66606E66663C0095
:10DD40006666667E666666003C18181818183C0001
:10DD50001E0C0C0C0C6C3800666C7870786C6600CD
:10DD60006060606060607E0063777F6B6363630008
:10DD700066767E7E6E6666003C66666666663C001B
:10DD80007C66667C606060003C666666663C0E0091
:10DD90007C66667C786C66003C66603C06663C008F
:10DDA0007E181818181818006666666666663C00C5
:10DDB00066666666663C18006363636B7F77630024
:10DDC00066663C183C6666006666663C1818180075
:10DDD0007E060C1830607E003C30303030303C0025
:10DDE0000C12307C3062FC003C0C0C0C0C0C3C0027
:10DDF00000183C7E181818180010307F7F30100073
:10DE0000000000000000000018181818000018009A
:10DE100066666600000000006666FF66FF666600D4
:10DE2000183E603C067C180062660C18306646009E
:10DE30003C663C3867663F00060C18000000000096
:10DE40000C18303030180C0030180C0C0C18300046
:10DE500000663CFF3C6600000018187E18180000A1
:10DE600000000000001818300000007E00000000D4
:10DE700000000000001818000003060C18306000B5
:10DE80003C666E7666663C001818381818187E00D6
:10DE90003C66060C30607E003C66061C06663C0054
:10DEA000060E1E667F0606007E607C0606663C0047
:10DEB0003C66607C66663C007E660C18181818008C
:10DEC0003C66663C66663C003C66663E06663C0018
:10DED000000018000018000000001800001818309A
:10DEE0000E18306030180E0000007E007E0000002A
:10DEF00070180C060C1870003C66060C1800180010
:10DF00003C666E6E60623C0000003C063E663E0071
:10DF10000060607C66667C0000003C6060603C00E5
:10DF20000006063E66663E0000003C667E603C00E1
:10DF3000000E183E1818180000003E66663E067C6B
:10DF40000060607C666666000018003818183C00A7
:10DF5000000600060606063C0060606C786C6600F1
:10DF60000038181818183C000000667F7F6B6300AB
:10DF700000007C666666660000003C6666663C00E3
:10DF800000007C66667C606000003E66663E0606B9
:10DF900000007C666060600000003E603C067C0023
:10DFA00000187E1818180E000000666666663E00AF
:10DFB00000006666663C18000000636B7F3E36001A
:10DFC0000000663C183C660000006666663E0C7801
:10DFD00000007E0C18307E003C30303030303C0089
:10DFE0000C12307C3062FC003C0C0C0C0C0C3C0025
:10DFF00000183C7E181818180010307F7F30100071
:10600000544849532049532042414E4B20233020CD
:0A6010002D204E4F542055534544F7
:10800000544849532049532042414E4B20233120AC
:0A8010002D204E4F542055534544D7
:0FA00000544849532049532042414E4B202332AC
:10A100003E013208203A0120C6064F3E03ED791881
:10A11000EF3A0120C6064F3E03ED79E901BE042166
:10A12000B9C6113535EDB03A0320C6034F061CED14
:10A13000410D0601ED412100C2223635CD3535CD28
:10A1400071C13ED0D30221F2393AA139BE28FA7E3C
:10A15000FE9428073AA13977C349C1F3CD93C13A98
:10A160000320C6034F061CED410D0600ED41C3114F
:10A17000C1F33A120BCBAFCBA732120BD3053E0A79
:10A18000D3703E03D3713EC332380021B7C12239A8
:10A1900000FBC9F321B4C1113800010300EDB03A4E
:10A1A000120BCBAFCBA732120BD3053E0AD3703EB6
:10A1B00003D371C9F53E70F3F53E02D307E5C5D56B
:09A1C000CD3B35D1C1E1F1FBC931
:10A200008F049504770487048B0445547261636B53
:10A21000657220284329204259204553492E569AD9
:10A22000D254D29AD256D254D29AD256D254D29A28
:10A23000D29AD25793D292D28CD28BD285D284D258
:10A240005156059AD254D29AD29AD2529FD2549A47
:10A25000D29AD256D254D29AD256D254D2529FD2F5
:10A26000549AD256D254D256D254D29AD29AD25268
:10A270009FD2549AD29AD256D254D29AD256D2540B
:10A28000D2529FD2549AD256D254D256D254D29A43
:10A29000D29AD2529FD2549AD29AD256D254D29AA9
:10A2A000D256D254D2529FD2549AD256D254D25667
:10A2B000D254D29AD29AD2529FD2549AD29AD25689
:10A2C000D254D29AD256D254D2529FD29FD2549ABA
:10A2D000D2529FD25156059AD254D29AD29AD25281
:10A2E0009FD2549AD29AD256D254D29AD256D2549B
:10A2F000D2529FD2549AD256D254D256D254D29AD3
:10A30000D29AD2529FD2549AD29AD256D254D29A38
:10A31000D256D254D2529FD2549AD256D254D256F6
:10A32000D254D29AD29AD2529FD2549AD29AD25618
:10A33000D254D29AD256D254D2529FD2549AD25692
:10A34000D254D256D29AD2529FD29FD2569AD29AF1
:10A35000D2529FD29FD29FD29FD29FD29FD49FD3BF
:10A3600051DB5792D293D28BD28CD284D285D251E8
:10A370005980D58CD479D385D279D385D379D37EBE
:10A38000D58AD37AD27BD387D27BD387D37BD38032
:10A39000D58CD479D385D279D383D38FD382D58EFC
:10A3A000D481D38DD281D38DD381D3515980D58C93
:10A3B000D479D385D279D385D379D37ED58AD37A0C
:10A3C000D27BD387D27BD387D37BD380D58CD479F0
:10A3D000D385D279D385D379D37AD27AD286D286ED
:10A3E000D27CD27CD288D288D27ED27ED27ED27EDD
:10A3F000D651E151533096DB93D396D393D395D472
:10A4000091E096D593D396D595D498D698D497D4F1
:10A410009BD69AD251D55330A2D69FD4A2D39FD3E4
:10A42000A1D39DD29ADA9DD39FD29DDA9DD39FD29C
:10A430009DD69ED299D296D292D2A0D29BD298D2B9
:10A4400094D2A2D2A2D2A2D2A2D65158A7E1A6E11A
:10A45000A7E1A9D9A8D95158A7E1A6E1A7D9A9D9B7
:10A46000AAD5ACD555AED2AED2AED2AED65158A248
:10A47000E1A1E1A2E1A4D9A3D95158A2E1A1E1A2AD
:10A48000D9A4D9A5D5A7D555A9D2A9D2A9D2A9D63B
:10A49000515931A6D39FD2A2D39BD29FD2A2D2A68A
:10A4A000D3A5D2A4D3A1D2A2D2A3D2A4D3A9D29D00
:10A4B000D39FD2A1D2A2D2A4D3A3D2A2D5A4D2A6F2
:10A4C000D2A4D2A2D29FD39ED29FD2A2D2A6D39EF2
:10A4D000D3A1D2ABD4A9D3ADD2A9D3A6D2A9D2ABA2
:10A4E000D2ACD2AED2ABD2ACD2A9D2ABD2A7D2A987
:10A4F000D251D25931A6D29FD2A2D39BD29FD2A2FF
:10A50000D2A6D3A5D2A4D3A1D2A2D2A3D2A4D3A996
:10A51000D29DD39FD2A1D2A2D2A4D3A3D2A2D5A49A
:10A52000D2A6D39AD39BD29FD3A2D2A1D5A6D5A28D
:10A53000E151FE000CFFFE5FFD00BF00FFBF50FFBA
:10A54000BDD09DBDA26BBDD049BDA237BDD025BD3C
:10A55000A224BDD013BDA212BDD011BDA211BDD089
:10A560000210BDA2BDD0203100011200FC1100027A
:10A57000AA1FFD1FFA1FFD02991100110311060207
:10A5800088110311001FFD02771FFA1FFD11000241
:10A5900066110311061103025511001FFD1FFA0277
:10A5A000441FFD11001103023311061103110002B3
:10A5B000221FFD1FFA1FFD010611110011031106D4
:10A5C00011031100FC04210044332211FC3101BBB2
:10A5D000181101BBAAAA9999888877665544332235
:10A5E00011FCBF00FF1D00AB1B0067198033FCB1DD
:10A5F00000FF7FE0DD1FC0CC1FA0BB1F80AA1F6033
:10A60000991F40881F20771F00661DE0551DC0441C
:10A610001DA0331D80221D6011FCFE00110044446A
:10A62000FC001100FFFF1FFEEE1FFCEE1FFEDD1100
:10A6300000DD1102CC1104CC1102BB1100BB1FFEC6
:10A64000AA1FFCAA1FFE9911009911028811048803
:10A650001102771100771FFE661FFC661FFE551161
:10A660000044FE11020108331104110211001FFE03
:10A670001FFC1FFE1100FC3D036D03C503CD03E26B
:10A6800003EF031A042104320336030102030061BD
:10A6900000FE0306FF1E006101F201F201F201F269
:10A6A0000141007001F4014B026E029102D500AC31
:10A6B00001150257027A02F202210000C326393E38
:10A6C000013D201FDD2174380606C5CDDE36011997
:10A6D00000DD09C110F42A24397CCD9136B5321B36
:10A6E000363E06323C35DD217438CDA437320A3986
:10A6F000221239E5210000CD9636228B35321936EB
:10A70000DD218D38CDA437320B39221339E52100F4
:10A7100000CD963622A935CB143003321936DD210F
:10A72000A638CDA437320C39221439E5210000CDEA
:10A73000963622C735CB143003321936DD21BF38A7
:10A74000CDA437320D39221539E5210000CD9636DA
:10A7500022E135321336DD21D838CDA437320E3917
:10A76000221639E5210000CD963622FF35CB143074
:10A7700003321336DD21F138CDA437320F392217D9
:10A7800039E5210000CD9636CB1DCB1DCB1CCB1C53
:10A79000221E390738033E0007070707F600F600B8
:10A7A000322039F1C1CD9136B067F1C1CD9136B0CB
:10A7B0006F221B39F1C1CD9136B0321A393A0320DC
:10A7C000C6034F060011011CED510DED592123392F
:10A7D00016190CED510D7EED7915F82B18F40521A5
:10A7E0003C556D8499ADC0D2E3F3FE010000FC003E
:10A7F000969E9A868E8A979F9B878F8BFE00FFD2AC
:10A8000057720052AB5161505230C22E352129117E
:10A81000410F46003A07070707C9080FCB1D0FCBAA
:10A820001CC9CB210600094E234623E5210000095F
:10A830004D44E1C9210000CD9E36DD710FDD701061
:10A84000216636DD7504DD74051847210000CD9EB4
:10A8500036DD7111DD7012217836DD7508DD740981
:10A86000183CDD3513F078FE032122393001232214
:10A870003637DD5E00DD5601217A361A23962338FD
:10A88000FA134F7E32043718FEDD710EDD4E0FDDF8
:10A890004610DD7102DD7003DD4E11DD4612DD7103
:10A8A00006DD7007DD361401DD361501DD361601D3
:10A8B00018C60600216B36097E32000018BADD7119
:10A8C0001718B5793C325E3518AEDD711818A92815
:10A8D000020E032A3637232371189D01663618B2FB
:10A8E000DD7113DD7300DD7201C9CDA039C3EE3611
:10A8F000FE7F2809FE7E280DC6024F183EDD750436
:10A90000DD74051836DD6E04DD6605182E3C28085A
:10A910003C280DD6604F1845DD6E08DD6609183DF0
:10A92000DD7508DD74091835DD5E0ADD560BDD3591
:10A9300015DD6E02DD660320130E017E230F30B09D
:10A94000DD7115DD770B5E57DD730A23E5DD7E0DC6
:10A95000DD3514201A0E01DD6E06DD66077E23FE4E
:10A960006030AADD7114DD770DDD7506DD7407DD5D
:10A97000860EFE5F21FF072816C6003002D6602132
:10A980000CFF44249530FC4F7C216636096E671914
:10A990007CE607677A0F0F0FE60F08EBE1DD7E0C10
:10A9A000DD3516200D7E23FE0020354E237E23DD6F
:10A9B0007116DD7502DD7403DD770CEBDD46184F93
:10A9C000E60F903001AF5F79E6F0CD91369030011F
:10A9D000AF57DD7E17B77B20027A53CD9136B2C9CF
:10A9E000E5472100007EB72809234E23B820F6E171
:08A9F00018BBE10E017818B755
:10AA8E0000000000000000000000000000000000B8
:10AA9E0000000000000000000000000022A936CDDA
:10AAAE00A336ED43A139CDA336ED43B639CDA3364A
:10AABE00ED43B136CDA336ED43C836CDA3360A03EA
:10AACE00322438ED435F3821743806B2AF77231045
:10AADE00FC3C323C35DD2174381119000606DD369A
:10AAEE001401DD361501DD361601216636DD750FD2
:10AAFE00DD7410DD7502DD7403217836DD7511DD30
:10AB0E007412DD1910D811021C3A0320C6034F0629
:10AB1E0000ED510DED592100004E79233C283A3CB1
:10AB2E00283CD662303D22A139CB21210000CD9E9A
:10AB3E0036ED437438CDA336ED438D38CDA336EDC7
:10AB4E0043A638CDA336ED43BF38CDA336ED43D85B
:10AB5E0038CDA336ED43F138C921000018BB22E4ED
:09AB6E003918B632F63718B15B54
:00000001FF